:020000040000FA
:060000000A128A110E280D
:10000800FE00030EF3000408F4000A08F5000A12C3
:100018008A15862F0A128A1111288317C230FD000B
:100028000030FE00B030FF00903084000A128A15BC
:100038004D270A128A118313D530FD000030FE00C7
:100048007B30FF00A03084000A128A154D270A125F
:100058008A116730FD000730FE00E530FF004C30A4
:1000680084000A128A154D270A128A118317C23092
:100078008400D6300A128A1526270A128A11831399
:10008800D5308400E5300A128A1526270A128A110B
:10009800E701E801E901F70183010A128A11F5294C
:1000A800FF0000308A007F08820759280A128A1543
:1000B800122F0A128A152E2F0A128A11A72F0A1236
:1000C8008A11E92A0A128A11BF2B0A128A159C2F53
:1000D8000A128A11562E0A128A15172F0A128A1125
:1000E800B52E0A128A11132F0A128A15382F413495
:1000F80054342B34433449345034533445344E3417
:1001080044343D34003400340034003400340034C6
:100118000034003400342034003400340034003417
:100128000034003400340034003400340034003427
:100138000034003400340034003400340034003417
:100148000034003400340034003400340034003407
:100158000034003400340034413454342B344334F4
:1001680057344A34413450343D3422340034003456
:1001780000340034003400340034003400340034D7
:1001880000340034003400340034003400340034C7
:1001980000340034203420342034203420342034F7
:1001A80020342034203420342034203420342034A7
:1001B800203420342034203420342034F6018312B3
:1001C8000313670868060319EA28EB28FD2867085F
:1001D800D53E840083130008A0002008F6000130F3
:1001E800A0002008E70767080F39A1002108E700E9
:1001F800FD287608FF280800FF1B0A2983137F18AB
:1002080083170008840A0319FF0A080001308A00CE
:100218000408840A8207003404340A34043400349D
:100228000034003400340034413454342B34433423
:1002380049345034533454344134523454343D34B2
:10024800223454344334503422342C34223431345C
:10025800393432342E343134363438342E3434345C
:100268002E34313422342C343334333433340D3493
:100278000A340034413454342B344334573453341F
:10028800413450343D3422345434433443342234DA
:100298002C34223438343734363435343434333427
:1002A8003234313422342C3431342C3432342C343A
:1002B80034342C3430340D340A340034413454345A
:1002C8002B34433457345334413450343D3422347E
:1002D800573449344F3422342C34223431343234B4
:1002E80033343434353436343734383422342C34D7
:1002F80031342C3432342C3434342C3430340D34FE
:100308000A340034413454342B34433457344134A0
:10031800553454344F3443344F344E344E343D34D2
:1003280030340D340A340034413454342B344334DB
:1003380057344D344F34443445343D3431340D341E
:100348000A340034413454342B344334493450345F
:100358004D34553458343D3431340D340A34003476
:10036800413454342B34433457344D344F344434AB
:1003780045343D3432340D340A3400344134543475
:100388002B34433457344D344F34443445343D349E
:1003980033340D340A340034413454342B34433468
:1003A80057344C34413450340D340A340034413419
:1003B80054342B34433449344634533452340D3492
:1003C8000A34003431343234333434343534363446
:1003D800373438340034573449344F3400342034F7
:1003E80000348312031360080A128A1154200A1277
:1003F8008A11003083120313BA000130B900C230E9
:10040800B8000030B7000A128A1538270A128A1174
:10041800B83083120313A0000B30A1000A128A150A
:10042800B4270A128A118312031364080A128A1164
:1004380054200A128A1183120313E901A401A40AA1
:100448004F080A128A1154200A128A110A128A11B4
:10045800F2240A128A1183120313AB01AC01B430DF
:10046800C9004908AD0062080A128A1154200A120C
:100478008A11B83083120313A0000B30A1000A12AE
:100488008A15B4270A128A11E03083120313C900AF
:100498004908A400D730CA004A08A50050080A1223
:1004A8008A1154200A128A118312031364080A124B
:1004B8008A1154200A128A1183120313E9010A12BD
:1004C8008A11F2240A128A1183120313AB01AC01B8
:1004D800B430C9004908AD0062080A128A115420D4
:1004E8000A128A11B83083120313A0000B30A1003E
:1004F8000A128A15B4270A128A11822A8312031350
:1005080064080A128A1154200A128A1183120313EA
:10051800E90157080A128A1154200A128A110A128C
:100528008A11F2240A128A1183120313AB01AC0157
:10053800B430C9004908AD0062080A128A11542073
:100548000A128A11B83083120313A0000B30A100DD
:100558000A128A15B4270A128A1183120313CB01CF
:10056800B62A822A64080A128A1154200A128A11A9
:1005780083120313E9010A128A11F2240A128A115A
:1005880083120313AB01AC01B430C9004908AD00B4
:1005980062080A128A1154200A128A11B83083128A
:1005A8000313A0000B30A1000A128A15B4270A12FF
:1005B8008A11013083120313C9004908CB07B62AF0
:1005C800822A822A0A128A110E280A3083120313F9
:1005D800A6002608C8002A3084009030A600040827
:1005E800A7001E30A8002608840083170008A90069
:1005F800A60A27088400831329088000A70AA80BE5
:10060800F72A1C2B240884000A128A110A210A12CC
:100618008A11A60048082A3E840026088000013076
:10062800A6002608A4070130A6002608C8071C2B28
:10063800240884000A128A110A210A128A11003A2F
:10064800031D272B282B062B292B2230A600480810
:100658002A3E8400260880000130A6002608C80724
:100668002C30A60048082A3E840026088000013065
:10067800A6002608C8072230A60048082A3E84009B
:10068800260880000130A6002608C8072408840030
:100698000A128A110A210A128A11A600A70126083D
:1006A80083160317C2008312031327088316031740
:1006B800C300762B83120313250884000A128A11BB
:1006C8000A210A128A11A60048082A3E8400260830
:1006D80080000130A6002608A5070130A6002608DC
:1006E800C807762B83120313250884000A128A117F
:1006F8000A210A128A11003A031D832B842B5E2BD0
:10070800852B2230A60048082A3E8400260880004F
:100718000130A6002608C8070D30A60048082A3E62
:100728008400260880000130A6002608C8070A3081
:10073800A60048082A3E8400260880000130A6004A
:100748002608C80748082A3E840080012A30A000ED
:100758000030A1000A128A11A7270A128A118830CC
:1007680083120313A0001330A1000A128A15B427BC
:100778000A128A110800831203132403031DC52BD0
:10078800C62BDB2B8930A0008030A1000A128A1109
:10079800A7270A128A11E83083120313A000033036
:1007A800A1000A128A15B4270A128A11DB2B02301B
:1007B800831203132406031DE22BE32B242CA530FC
:1007C800A0008030A1000A128A11A7270A128A11F4
:1007D800E83083120313A0000330A1000A128A151F
:1007E800B4270A128A112F3083120313A000803015
:1007F800A1000A128A11A7270A128A11E830831267
:100808000313A0000330A1000A128A15B4270A12A4
:100818008A11973083120313A0008030A1000A12B6
:100828008A11A7270A128A11E83083120313A0003D
:100838000330A1000A128A15B4270A128A11242C3F
:100848000330831203132406031D2B2C2C2C6D2C30
:10085800B330A0008030A1000A128A11A7270A121B
:100868008A11E83083120313A0000330A1000A1292
:100878008A15B4270A128A11533083120313A00071
:100888008030A1000A128A11A7270A128A11E830BB
:1008980083120313A0000330A1000A128A15B4279B
:1008A8000A128A11973083120313A0008030A10026
:1008B8000A128A11A7270A128A11E8308312031331
:1008C800A0000330A1000A128A15B4270A128A115F
:1008D8006D2C0800F6008312031308127608A00096
:1008E80004300310A00CFF3E031D752C08082006D9
:1008F800F03920068800881276030319842C852C89
:100908008C2C02307606031D8A2C8B2C972C8C2C71
:100918000D3083120313A100FB30A000A00B922C12
:10092800A10B922C9F2C413083120313A000A00B23
:100938009B2C9E2C9F2C831203138816F03076056F
:10094800A00020302006031DAA2CAB2CC52C0812B1
:100958007608A00004300310A00CFF3E031DAF2C46
:1009680008082006F03920068800881241308312D2
:100978000313A000A00BBE2CC12C831203138816EE
:10098800C52C08120F307605A00008082006F0399B
:1009980020068800881276030319D32CD42CDB2C6C
:1009A80002307606031DD92CDA2CE62CDB2C0D3010
:1009B80083120313A100FB30A000A00BE12CA10BB4
:1009C800E12CEE2C413083120313A000A00BEA2C7B
:1009D800ED2CEE2C8312031388160800682D0A12DA
:1009E8008A11E2200A128A1183120313A200220834
:1009F800A40014302402031C022D032D152D2408F5
:100A0800A2006908B43E84002208831380000130E4
:100A1800A2002208E90769081F39A3002308E90092
:100A2800682D0D302406031D1A2D1B2D3D2DE43095
:100A3800A2006908B43E84002208831380000130B4
:100A4800A2002208E90769081F39A3002308E90062
:100A5800E430A2006908B43E840022088000013016
:100A6800A2002208E90769081F39A3002308E90042
:100A7800682D0A302406031D422D432D682DE430CD
:100A8800A2006908B43E8400220883138000013064
:100A9800A2002208E90769081F39A3002308E90012
:100AA800E430A2006908B43E8400220880000130C6
:100AB800A2002208E90769081F39A3002308E900F2
:100AC800682D682D682D682D0A128A151E270A12AE
:100AD8008A11003A031D712D722DF32C732D080015
:100AE80083120313A501A11F7A2D7B2D832DA00945
:100AF800A109A00A0319A10AA501A50A832DA31F0C
:100B0800862D872D912DA209A309A20A0319A30AEC
:100B18000130F6007608A506912DA601A701200848
:100B280021040319982D992DD62DA401A40AA82DC6
:100B380001300310A00DA10DFF3E031D9D2D0130B6
:100B4800F6007608A407A82DA11FAB2DAC2D9C2D6F
:100B5800AE2DAE2D01300310A60DA70DFF3E031DCF
:100B6800AF2D21082302031DBB2D20082202031CE0
:100B7800BE2DBF2DC72D2008A2022108031CA303E8
:100B8800A3022614C72D01300310A10CA00CFF3EB0
:100B9800031DC82D0130A402031DD32DD42DAE2D65
:100BA800D62DD62D25080319DA2DDB2DE12DA60922
:100BB800A709A60A0319A70AE12D2708A1002608F4
:100BC800A000E62D0800003083120313AB000030AC
:100BD800AA000030A9000030A8002308220421043C
:100BE80020040319F82DF92D4C2EAC01AC0A0A2E5D
:100BF8000130F6000310A00DA10DA20DA30DF60BF8
:100C0800FE2D0130F6007608AC070A2EA31F0D2E24
:100C18000E2EFC2D102E102E0130F6000310A80DFC
:100C2800A90DAA0DAB0DF60B122E23082702031DE2
:100C3800272E22082602031D272E21082502031D20
:100C4800272E20082402031C2A2E2B2E3B2E200898
:100C5800A4022108031C210FA5022208031C220F4D
:100C6800A6022308031C230FA70228143B2E0130D9
:100C78000310A30CA20CA10CA00CFF3E031D3C2EDC
:100C88000130AC02031D492E4A2E102E4C2E4C2E3C
:100C98002B08A3002A08A2002908A1002808A00000
:100CA800552E080083120313AF01B0012C08AE00C3
:100CB8002E08A8002B080A128A1571270A128A1111
:100CC800A92E831203133008803AFF0080307F0278
:100CD800031D702E20302F020318732E742E9C2EA5
:100CE800831203132F080F39AE002E08A800103006
:100CF800A0000030A1003008A3002F08A2000A12AB
:100D08008A1174250A128A118312031320080A1201
:100D18008A1571270A128A11831203132D08840079
:100D2800831300080A128A15D3270A128A119C2EE7
:100D3800013083120313AE002E08AD070130AF0750
:100D48000318B00A0030B007A92E831203132D0828
:100D5800840083130008031DB22EB32E652EB42E13
:100D68000800643083120313A0000030A1000A12A7
:100D78008A15B4270A128A118316031308108810DB
:100D8800081188110812881208178817643083120E
:100D98000313A0000030A1000A128A15B4270A1212
:100DA8008A1183120313881628300A128A116E24B6
:100DB8000A128A110C300A128A116E240A128A1138
:100DC80001300A128A116E240A128A1102300A129C
:100DD8008A116E240A128A11643083120313A00048
:100DE8000030A1000A128A15B4270A128A110130AC
:100DF80083120313A6002608A20001300A128A11E2
:100E080067270A128A11643083120313A000003086
:100E1800A1000A128A15B4270A128A1108008B1336
:100E2800831203132D08B1002E08B2002F08B30057
:100E38003008B40002300310B10DB20DB30DB40D7B
:100E4800FF3E031D1F2F3408A3003308A2003208F9
:100E5800A1003108A0000130A7003130A6002D30D4
:100E6800A5000030A4000A128A11E7250A128A1187
:100E7800831203132008FF3EB50021080318013E22
:100E8800FF3EB60035088316031399008312031337
:100E98003608831603139A0018128316031787154A
:100EA8008316031318158312031398178316031355
:100EB8009816831203131816831603138C160C1234
:100EC8000B178B17080083120313A4002408A30030
:100ED80002300310A30DFF3E031D6D2F0310230DD9
:100EE8003F39403E0A128A116E240A128A1183126F
:100EF8000313A50108302502031C832F842F862F96
:100F0800A02FA02F2508220784000A128A110A217F
:100F18000A128A110A128A15D3270A128A11013075
:100F280083120313A3002308A50708302502031C16
:100F38009E2F9F2F862FA02F01300A128A116E2410
:100F48000A128A110800D32FAA2FAA2F831203137B
:100F58005D080A128A1154200A128A11003A031DE8
:100F6800B62FB72FAA2FB82F831203132108FF001B
:100F7800200884000A128A1100210A128A11A2008C
:100F88002208F6005C080A128A1154200A128A11F3
:100F9800013083120313A0070318A10AD32F831269
:100FA80003132108FF00200884000A128A11002177
:100FB8000A128A11003A031DE22FE32FAA2FE42F09
:100FC80008001F34073400340D340A340034003468
:100FD8000034003400340034103400340034003459
:100FE8000034013404341C3400341934003413340C
:080FF80000341634003400340B
:101E24007608831203139900080001300A128A11FC
:101E34006E240A128A150800831203136703FF3AFB
:101E440068070F39252F080064008001840A0406FE
:101E5400031900340406272F031083160313981C58
:101E64000314003003180130372F080083120313C2
:101E74003A08B0003908AF003808AE003708AD00A2
:101E84005E080A128A1154200A128A1508007E0874
:101E94008A007F0882000A128A1549270A128A15C5
:101EA4008000840A04087D0603190034FF0A03191C
:101EB400FE0A4D2FF2007208F00083120313680823
:101EC400D53E84007008831380000130F000700850
:101ED400E80768080F39F1007108E8000800831268
:101EE4000313AA002A08A90006300310A90DFF3E17
:101EF400031D772F280829077F39803E0A128A118B
:101F04006E240A128A150800831203138C1E8B2F69
:101F14008C2F932F1A080A128A155C270A128A1525
:101F2400932F75088A0074088400730E8300FE0ED4
:101F34007E0E0900093083120313A0008030A10033
:101F44004D080A128A1154200A128A15D0308312BD
:101F54000313A0000730A1000A128A15B4270A123D
:101F64008A150800C92F073083120313A3007C309D
:101F7400A200A20BBB2FA30BBB2F000001308312C6
:101F84000313A0020030031CA103A102C92F831272
:101F9400031320082104031DD02FD12FB52FD22FD6
:101FA400080083120313A00008162008F60004306A
:101FB4000310F60CFF3E031DDA2F08087606F039ED
:101FC4007606880088124230F600F60BE72F0000F0
:101FD40083120313881608160F302005F60008082C
:101FE4007606F0397606880088124230F600F60B41
:0C1FF400F92F0000831203138816080068
:04400E00D2E0FFFFFE
:00000001FF
