:020000040000FA
:100000000A128A11EB2FFF0000308A007F08820756
:0800100008280A128A11262FAC
:100C62008312031385118515080001340034003402
:100C720000340034003400347E088A007F08820089
:100C82000A128A113D260A128A118000840A040877
:100C92007D0603190034FF0A0319FE0A412E5F2E56
:100CA200C730F200542EF20B532E572E582E01301D
:100CB200F0020030031CF103F1025F2E7008710490
:100CC200031D642E652E512E662E08000A128A110B
:100CD20026270A128A112030F9007908F000043020
:100CE200FA007A08F10024300A128A11EF260A1259
:100CF2008A117B2E831203132408F9007908A000BD
:100D02002508F9007908A1000A128A11BA260A12E6
:100D12008A117B2E7B2E0A128A110028F100803064
:100D2200F0007008F300F201AF2E831203130511D5
:100D32007108730503199E2E9F2EA12E0514A22E53
:100D42000510851CA52EA62EAB2E7308F000700888
:100D5200F204AB2E05150310F30CAF2E7308031D1E
:100D6200B32EB42E962E8312031305117208B92ED8
:100D720008007B08FF3EF4007408F7000A128A118B
:100D820031260A128A11F801E22E7803FF3A770718
:100D92007C07F40074088400831300080A128A1185
:100DA2008F260A128A11F50078087D07F600760868
:100DB20084007508831380000130F4007408F8077A
:100DC200E22E7B087802031CE72EE82EC62EE92EBF
:100DD2000A128A1131260A128A110800F3007308D6
:100DE200F2007208FD007008F2007208FC0071083F
:100DF200F2007208FB008312031385118316031796
:100E020088118316031385118312031305118316A8
:100E12000317081183160313051183120313051018
:100E22008316031708108316031305108312031386
:100E3200050883160317881083160313851483127B
:100E4200031305110510851508006430F000003009
:100E5200F1000A128A1150260A128A118316031708
:100E620089018316031308108810081188110812CB
:100E720088126430F0000030F1000A128A11502604
:100E82000A128A1183120313881428300A128A1153
:100E920068270A128A110C300A128A1168270A126C
:100EA2008A1101300A128A1168270A128A11023045
:100EB2000A128A1168270A128A116430F00000307F
:100EC200F1000A128A1150260A128A110800F20051
:100ED2008312031308107208F00004300310F00CA0
:100EE200FF3E031D6F2F7008F100F10DF10D080890
:100EF2007106C33971068800881072030319822FA4
:100F0200832F8A2F02307206031D882F892F942F78
:100F12008A2F0330F1009730F000F00B8E2FF10B87
:100F22008E2F932F992F0D30F000F00B962F992FC3
:100F3200831203138814F0307205F000203070061B
:100F4200031DA42FA52FC02F08107208F000043033
:100F52000310F00CFF3E031DA92F7008F100F10DE4
:100F6200F10D08087106C3397106880088100D302A
:100F7200F000F00BBA2F831203138814C02F08104D
:100F820072080F39F000F00DF00D08087006C33931
:100F920070068800881072030319D02FD12FD82F22
:100FA20002307206031DD62FD72FE22FD82F03301F
:100FB200F1009730F000F00BDC2FF10BDC2FE12F6A
:100FC200E72F0D30F000F00BE42FE72F831203130D
:100FD2008814080083132F30FD000630FE003630DF
:100FE200FF00283084000A128A1141260A128A114F
:0E0FF200FB01FC01FD0183010A128A11672E2A
:04400E00D4E0FFFFFC
:00000001FF
